:020000040800F2
:100000000000022009320008A1200008A3200008F7
:10001000A5200008A7200008A92000080000000073
:10002000000000000000000000000000AB200008FD
:10003000AD20000800000000AF200008B12000083B
:100040005932000859320008593200085932000864
:100050005932000859320008593200085932000854
:100060005932000859320008593200085932000844
:100070005932000859320008593200085932000834
:100080005932000859320008593200085932000824
:100090005932000859320008593200085932000814
:1000A000B920000859320008C92000085932000858
:1000B000D920000859320008593200085932000886
:1000C00059320008593200085932000859320008E4
:1000D00059320008593200085932000859320008D4
:1000E00059320008593200085932000859320008C4
:1000F00059320008593200085932000859320008B4
:1001000059320008593200085932000859320008A3
:100110005932000859320008593200085932000893
:100120005932000859320008593200085932000883
:100130005932000859320008593200085932000873
:100140005932000859320008593200085932000863
:100150005932000859320008593200085932000853
:100160005932000859320008593200085932000843
:1001700059320008593200085932000800000000C6
:08018000593200085932000851
:100190000348044B834202D0034B03B11847704716
:1001A0007000002070000020000000000548064B91
:1001B0001B1AD90F01EBA301491002D0034B03B165
:1001C00018477047700000207000002000000000F9
:1001D00010B5064C237843B9FFF7DAFF044B13B18F
:1001E0000448AFF300800123237010BD700000208D
:1001F000000000005C32000808B5044B1BB1044944
:100200000448AFF30080BDE80840CFE700000000DD
:10021000740000205C32000870B50D4E0D4D761B49
:10022000B61006D0002455F8043B01349847A64286
:10023000F9D1094E094D761B03F010F8B61006D01F
:10024000002455F8043B01349847A642F9D170BD0B
:100250004C3300084C330008503300084C3300087E
:10026000830730B548D0541E002A3FD0CAB2034697
:1002700001E0013C3AD303F8012B9D07F9D1032C8F
:100280002DD9CDB245EA05250F2C45EA054536D9CD
:10029000A4F1100222F00F0C03F1200EE6444FEA05
:1002A000121C03F1100242E9045542E902551032D2
:1002B0007245F8D10CF1010214F00C0F03EB02129D
:1002C00004F00F0C13D0ACF1040323F00303043348
:1002D000134442F8045B9342FBD10CF003042CB1AD
:1002E000CAB21C4403F8012B9C42FBD130BD6446CA
:1002F0001346002CF4D1F9E703461446BFE71A462B
:10030000A446E0E70EB410B5044683B008B1836993
:100310005BB106ABA168059A0193204600F060FD31
:1003200003B0BDE8104003B0704700F067FBF0E792
:100330000FB410B50A4B1C6882B00CB1A3695BB155
:1003400005ABA168049A0193204600F049FD02B074
:10035000BDE8104004B07047204600F04FFBEFE7C7
:10036000000000202DE9F0410E460746002833D05A
:1003700083697BB384682F4B9C4237D02E4B9C42C1
:100380003FD02E4B9C4208BFFC68A3891B0731D588
:1003900023697BB33578B0463DB934E023685A1CF5
:1003A00022601D7018F8015F6DB3A368013B002B3C
:1003B000A360F3DAA669B34229462246384601DB38
:1003C0000A2DEBD100F044F80130EBD14FF0FF30B3
:1003D000BDE8F08100F012FBBB69BC68002BCAD1FC
:1003E000384600F00BFB134B9C42C7D17C68A389B5
:1003F0001B07CDD42146384600F08EF80028C9D01E
:10040000E4E7BC68C1E7A368013B002BA36009DAFD
:1004100022460A21384600F01BF80130D6D00A20C7
:10042000BDE8F08123680A22591C21601A70104629
:10043000BDE8F081B8320008983200087832000830
:10044000024B01461868FFF78DBF00BF0000002077
:10045000F8B50D461446064608B1836943B3254BEB
:100460009C422AD0244B9C4229D0244B9C4208BF5A
:10047000F468A389A269A2601A0722D5236903B38D
:1004800022686169D31AEDB299422F4629DD013302
:10049000A1680139A160511C2160157062699A42FE
:1004A00016D0A389DB0701D50A2D11D03846F8BD37
:1004B00000F0A4FA0F4B9C42D4D17468D9E7B46819
:1004C000D7E72146304600F027F838B92369D7E747
:1004D0002146304600F02CF90028E7D04FF0FF37D6
:1004E000E4E72146304600F023F90028F6D12268DF
:1004F0000123CDE7B83200089832000878320008AE
:1005000010B4044C03460A4620685DF8044B1946B3
:10051000FFF79EBF000000203C4B70B51D680646EB
:100520000C460DB1AB69E3B1394B9C421FD0394B3E
:100530009C424DD0384B9C4208BFEC68B4F90C305B
:1005400018079AB219D5216911B312F001002FD002
:100550000020A06060694042A06100292ED00020E8
:1005600070BD284600F04AFA294B9C42DFD16C68E6
:10057000B4F90C3018079AB2E5D4D1063ED552072B
:1005800028D4216943F00803A3819AB20029DCD161
:1005900002F42070B0F5007FD7D02146304600F03D
:1005A00091FAB4F90C3021699AB212F00100CFD15E
:1005B000950758BF6069A0600029D0D1120658BFC6
:1005C0000846CDD543F04003A3814FF0FF3070BD06
:1005D000AC68B3E7616B51B104F14402914204D0BD
:1005E000304600F0FDFAB4F90C3000226263216954
:1005F0000022C4E9001223F02403C3E7092243F0D8
:10060000400332604FF0FF30A38170BD0000002036
:10061000B832000898320008783200088B891A072F
:100620002DE9F0410C4680463FD44A68002A58DD47
:10063000E66A002E52D00022D8F80050C8F80020F8
:1006400013F4805251D10123216A4046B047431C24
:100650005ED0A389E66A5F0705D56368C01A636B3D
:100660000BB1236CC01A216A024600234046B047F2
:10067000411C3CD1D8F80030002B38D01D2B01D0C4
:10068000162B4DD123690022C4E90032616BC8F8F2
:10069000005019B304F14403994202D0404600F0DF
:1006A0009FFA00206063BDE8F0810E69B6B10D6865
:1006B0000E609A070CBF4B690023AD1B8B600BE0EB
:1006C0002B463246216AA76A4046B847B0F1000C73
:1006D000A5EB0C05664413DD002DF1DC0020BDE820
:1006E000F0810A6C002AA3DCF8E7606DB3E7002311
:1006F000636023692360A389DB04C7D56065C5E710
:10070000A38943F040034FF0FF30A381BDE8F0819F
:10071000D8F80030002B9CD01D2B06D0162B04D00F
:10072000A38943F04003A381D9E7C8F80050D5E777
:1007300038B50B69BBB10D46044608B18369B3B146
:100740000D4B9D4211D00D4B9D4213D00C4B9D4241
:1007500008BFE568B5F90C302BB129462046BDE845
:100760003840FFF75BBF002038BD6568F2E700F056
:1007700045F9E5E7A568EDE7B832000898320008CA
:100780007832000838B540B303690446E3B1174B2B
:100790001D680DB1AB69CBB1154B9C420FD0154B09
:1007A0009C4221D0144B9C4208BFEC68B4F90C3039
:1007B00053B121462846BDE83840FFF72FBF6C688B
:1007C000B4F90C30002BF4D1002038BD284600F0DD
:1007D00015F9074B9C42E2D1F1E7084B084918682C
:1007E000BDE8384000F04AB9AC68DFE700000020FF
:1007F000B8320008983200087832000874320008D5
:100800003107000800207047014900F037B900BFE8
:10081000310700080020704770B568224D1E02FBAA
:1008200005F50E4605F1740100F03CFA044640B1AE
:1008300000210C30C4E90016A06005F16802FFF742
:100840000FFD204670BD00BF274B2DE9F0411E680B
:10085000B369074653B348364FF00408D6E901346C
:10086000013B04D51EE05A1C04F168041AD0B4F907
:100870000C50013B002DF6D11C4B6566C4E90055B8
:10088000C4E90253C4E90455A5610822294604F1CC
:100890005C00FFF7E5FCC4E90D55C4E9125520469C
:1008A000BDE8F08135682DB12E46D7E7304600F01F
:1008B0001FF8D0E74FF4D671384600F0F3F904463C
:1008C00068B10560C0F804800C302946A060254658
:1008D0004FF4D072FFF7C4FC34602E46BEE70C2301
:1008E00030603B60DBE700BF743200080100FFFFAF
:1008F0002DE9F84F344B35491A68816290424FF028
:100900000003C0E91233036504BF01238361054678
:10091000FFF79AFF68602846FFF796FFA860284611
:10092000FFF792FF6F68E86000240423C7E90243E1
:1009300008222146C7E90044C7E904447C66BC613B
:1009400007F15C00FFF78CFCDFF88CB0AE68DFF8D5
:100950008CA0DFF88C90DFF88C801D4BC7F828A0A6
:10096000C7E9087BC7F82C90C7F830800822F360ED
:10097000C6E90044C6E904447466B460B461214623
:1009800006F15C00FFF76CFCC6E9086BC6E90AA932
:10099000C6F83080EE680F4BF360C6E90044C6E944
:1009A00004447466B460B4612146082206F15C0018
:1009B000FFF756FC0123C6E9086BC6E90B98C6F899
:1009C00028A0AB61BDE8F88F743200080908000860
:1009D000090001001200020081140008A914000897
:1009E000E914000809150008024B0349186800F0D3
:1009F00045B800BF7432000831070008836903B9A5
:100A000076E77047704700BF704700BF704700BF70
:100A1000704700BF024B0349186800F00FB800BFD1
:100A20000000002005080008024B0349186800F088
:100A300005B800BF00000020150800082DE9F041AE
:100A4000884600F148070026D7E90154013D0FD43C
:100A5000A389012B05F1FF3506D9B4F90E30013316
:100A6000204601D0C04706436B1C04F16804EFD157
:100A70003F68002FE8D13046BDE8F0812DE9F8430A
:100A80000746884600F148064FF00009D6E90154B0
:100A9000013D11D4A389012B05F1FF3508D9B4F923
:100AA0000E300133214603D03846C04749EA0009D9
:100AB0006B1C04F16804EDD13668002EE6D148467F
:100AC000BDE8F883F0B58B890C46990797B007D538
:100AD00004F147030122C4E90432236017B0F0BDDA
:100AE000B4F90E10002905462DDB6A4600F038FDEA
:100AF000002827DB019E06F470464FF48067A6F5B8
:100B00000056B6FA86F639462846760900F0CAF845
:100B100030B3A3891A4AAA6243F08003C4E90407E8
:100B2000A3812060002ED9D0B4F90E10284600F021
:100B3000A5FE0028D2D0A38923F0030343F00103CC
:100B4000A381CBE7A38913F0800F14BF40274FF494
:100B5000806739462846002600F0A4F80028D8D13E
:100B6000B4F90C309A05B9D423F0030304F1470219
:100B700043F002030121C4E90421A3812260ADE70F
:100B80000908000870B50C46B1F90E10002996B09E
:100B900016461D4613DB6A4600F0E2FC00280EDB19
:100BA000019901F47041A1F50051B1FA81F14FF4BE
:100BB0008063490900202960336016B070BDB4F924
:100BC0000C3000221B062A6004D54023002033602D
:100BD00016B070BD4FF480630020336016B070BD56
:100BE000002958D030B551F8043C83B0002BA1F156
:100BF0000404B8BFE418019000F0D0FF284A01981F
:100C0000136833B1A3420DD9216804EB010C63458D
:100C10002FD06360146003B0BDE8304000F0C0BF67
:100C2000A34210D81A465B68002BF9D1116802EB79
:100C3000010C644519D02FD36360546003B0BDE844
:100C4000304000F0ADBF116802EB010CA44516D096
:100C500022D8216804EB010C6345EDD11D685B6867
:100C60002944C4E900135460D5E72368194411608E
:100C7000D1E71D685B682944C4E90013CAE724680A
:100C800021445418A3421160C5D1D3E90043214443
:100C9000C2E90013BFE770470C230360BBE700BF46
:100CA0008C000020F8B5CD1C25F0030508350C2D6F
:100CB00038BF0C25002D064623DBA94221D8254F3D
:100CC00000F06CFF3A6822B3144603E063682246E2
:100CD000FBB11C4623685B1BF8D40B2B15D863684B
:100CE00094420CBF3B605360304600F059FF04F162
:100CF0000B00231D20F00700C21A01D01B1AA350BD
:100D0000F8BD0C2333600020F8BD23601C4425602F
:100D1000EAE77968C9B12946304600F09FFB431CD9
:100D20000CD0C41C24F00304A04205D0211A304684
:100D300000F094FB013001D02560D5E70C2330464C
:100D4000336000F02DFF0020F8BD304600F086FB38
:100D50007860E0E78C0000209368013B002B9360F3
:100D600011DA10B49469A34209DB0A2907D0136889
:100D7000581C1060197008465DF8044B70475DF808
:100D8000044BFFF765BB1368581C106019700846C8
:100D9000704700BF9BB1F8B5134406460F46541E7A
:100DA0005D1E01E0AC4208D014F8011F3A463046FF
:100DB000FFF7D2FF431CF5D1F8BD0020F8BD00209D
:100DC000704700BF936810B5144613B953601846B6
:100DD00010BD00F0DBFB0023C4E9013310BD00BFF0
:100DE0002DE9F04F88469FB015461C46814618B144
:100DF0008369002B00F0A280924B984500F0A480FC
:100E0000914B984500F0B180904B984508BFD9F8B8
:100E10000C80B8F80C30180740F19D80D8F81030DD
:100E2000002B00F0988000230B932978884E0594BE
:100E300020238DF8313030238DF8323001270029FE
:100E400074D02C460B4604E014F8013F002B00F050
:100E50008F80252BF8D1B4EB050B40F08C802378E4
:100E6000002B63D000234FF0FF32CDE90723069318
:100E700009938DF85B301C93013404E0069A07FA5D
:100E800003F3134306932546052214F8011B30464D
:100E900000F01EFD831B0028F0D1069BD90644BF3D
:100EA00020228DF85B2029781A0744BF2B228DF869
:100EB0005B202A2970D1059A116804320029059215
:100EC000C0F29B800991697801352E2976D0614C5A
:100ED0000322204600F0FCFC38B1069B001B402496
:100EE00004FA00F003430693013515F8011B5A4834
:100EF0008DF83010062200F0EBFC002800F0838013
:100F0000564B002B6DD005AA0092554B424606A9C0
:100F10004846AFF300800390039B013306D00B9B40
:100F2000039A297813440B9300298AD1B8F80C301E
:100F30005B0617D40B981FB0BDE8F08FFFF75EFD7E
:100F4000404B98457FF45CAFD9F80480B8F80C307A
:100F500018073FF563AF41464846FFF7DDFA002822
:100F60003FF461AF4FF0FF30E5E7D9F8088050E774
:100F7000B4EB050BDAD0AA46C5F1010503E09345B1
:100F800036D91AF8011F42464846FFF7E5FE013000
:100F900005EB0A02F3D1C9E7A1F13002092A94D87E
:100FA000099B15F8011F03EB830302EB4303A1F137
:100FB0003002092AF5D92E29099388D169782A297E
:100FC0002BD1059BA9781A6807920433002A05F1F2
:100FD00002000593B8BF4FF0FF330546B8BF079333
:100FE00075E7059B073323F007030833059396E75E
:100FF0000B9A23785A440B9232E7494243F002039A
:10100000099106935FE705AA0092154B424606A98F
:10101000484600F0CBF803907EE7A1F130020023B0
:10102000092A079305F101053FF651AF15F8011F95
:1010300003EB830302EB4303A1F13002092AF5D944
:10104000079344E7B8320008983200087832000865
:1010500008330008103300081433000800000000B3
:10106000950D000810B4054C8446134620685DF8C1
:10107000044B0A466146FFF7B3BE00BF00000020E4
:101080002DE9F84F92461F460A698B68DDF82890D3
:101090009A42B8BF1A46CAF8002091F843300C466D
:1010A000064613B10132CAF80020226891065DD5C8
:1010B000DAF800300233CAF80030226812F0060F66
:1010C00011461ED1E168CB1A002BD8BF114618DD9E
:1010D00004F1190B4FF0000805E0E568DAF800307C
:1010E000ED1A45450CDD01235A4639463046C847BE
:1010F000013008F10108F0D14FF0FF30BDE8F88F62
:10110000216894F84330003B18BF01238A060AD5B2
:10111000E1185A1C302081F84300224494F845100D
:1011200082F84310023304F1430239463046C8477F
:101130000130E1D0236803F00603042B1DD0A3681F
:101140002269934225DD4FF000089B1A98441A3417
:10115000002501E045451CDA012322463946304688
:10116000C847013005F10105F4D1C5E712F0060FBB
:1011700012D0003B18BF0123D5E7DAF80030E16850
:101180002269C91AA368934221EAE178DDDC0029CB
:10119000DDDC0020BDE8F88FE168DAF80030CB1A1A
:1011A000002BD8BF114693DCABE700BF2DE9F04719
:1011B0000C4684B09046227E0C990746994604F16D
:1011C0004300002A33D0A2F15803DDB2202D67D8A6
:1011D000202B65D8DFE813F0DE00640064006400B3
:1011E0006400640064006400640064006400A300A0
:1011F0006E0064006400640064006E0064006400BB
:101200006400640021007F00C00064006400AE0040
:1012100064007F0064006400E50023681A0640F162
:1012200004810B6862691D1D0D601B681A60002334
:1012300082462361CDF80090434603AA21463846F2
:10124000FFF71EFF013020D0236952464146384641
:10125000C847013019D02368E068039E9B0719D561
:10126000831B002B16DD04F1190A002504E0E06859
:10127000039E831BAB420DDD012352464146384697
:10128000C847013005F10105F1D14FF0FF3004B03E
:10129000BDE8F087B042B8BF304604B0BDE8F08783
:1012A000012384F84220236104F1420A002384F8D8
:1012B0004330BFE723681A0602D45E0600F1C180FE
:1012C0000D682A6804350D601546002A6BDBDFF8CF
:1012D00084C10A2610E023681D0640F19C800B683B
:1012E0001D1D0D601D68DFF86CC16F2A0CBF08263C
:1012F0000A26002384F843306268A260002A7FDB5C
:10130000236823F004032360002D5BD1002A79D1E8
:101310008246082E65D0A0EB0A0020618AE70B68A0
:101320000122186804330B6004F1420A84F8420079
:101330002261BBE70B686268181D0860D3F800A043
:101340000021504600F0C4FA002800F08180A0EB94
:101350000A0060602061A9E7236843F0200323604E
:101360007822DFF8F4C084F845200A68151D0D6066
:101370001D0643D4590641D51588DE0744BF43F006
:1013800020032360002D44D1236823F02003236031
:101390001026AEE7582384F84530DFF8B8C023683C
:1013A000E3E72368DCE76268A2602D21002AC5F12B
:1013B000000584F8431002DB23F004032360DFF808
:1013C00094C00A268246B5FBF6F306FB13512A4663
:1013D0001CF801100AF8011DB2421D46F3D2082E76
:1013E00099D12368D90796D5626823699A4292DC1D
:1013F00030230AF8013C0AF1FF3A8CE71568BCE794
:10140000002DDFD19CF8003084F8423004F1420A0C
:101410007FE710266DE713F0400F0B6803F104051A
:101420000D600CBF1D681D885DE713F0400F0B6851
:10143000626903F104050D601B6814BF1A801A600D
:10144000F5E60A68B2F9005004320A602A463CE721
:1014500060687FE71C3300083033000838B5074D5B
:101460000022044608462A6000F00CFC431C00D011
:1014700038BD2B68002BFBD0236038BD94000020C2
:1014800010B50C46B1F90E1000F0B4FB002803DBD8
:10149000636D0344636510BDA38923F48053A38166
:1014A00010BD00BF002070472DE9F0410C46B1F996
:1014B0000C101F46CB05054616460BD421F480516F
:1014C000A1813B46B4F90E1032462846BDE8F041F2
:1014D00000F01EB8B4F90E100223002200F0E0F96B
:1014E000B4F90C10EAE700BF10B50C46B1F90E10C4
:1014F00000F0D6F9A389421C0EBF23F4805343F4B5
:1015000080536065A38110BDB1F90E1000F016B8CC
:1015100038B50C46084D8446114620461A4600232D
:101520002B60644601F08BFD431C00D038BD2B6856
:10153000002BFBD0236038BD9400002038B5074D48
:101540000022044608462A6000F074FB431C00D0C9
:1015500038BD2B68002BFBD0236038BD94000020E1
:1015600070B50C46084D03460026204611461C4621
:101570002E6000F067FB431C00D070BD2B68002B71
:10158000FBD0236070BD00BF940000209368002B47
:1015900000F085802DE9F04FB1F90C300C461907A9
:1015A000804683B0174698B225D523691BB310F047
:1015B00002033D682DD04FF0000ADFF8BCB256465A
:1015C000B9465E453346524628BF5B464046002E2C
:1015D00052D0216AA76AB847002856DDD9F80830EA
:1015E0001B1A8244361AC9F80830002BE9D10020B2
:1015F00003B0BDE8F08F21464046FEF78DFF00287E
:1016000040F03681B4F90C303D6898B210F0020316
:10161000D1D110F0010944D14E46009746B382055E
:10162000D4F808B040F18380B3455A4600F2B28046
:1016300010F4906F40F0BF8020680192494600F09E
:1016400031FAA368019AA3EB0B012368A16013444C
:10165000B24623600026009B9868A0EB0A00D144A4
:1016600098600028C3D0B4F90C0080B2002ED6D107
:10167000D5E900960835D1E7D5E900A60835A0E7F9
:1016800021464046FFF754F880B3B4F90C3043F0DC
:1016900040034FF0FF30A38103B0BDE8F08F00207E
:1016A00070471E46AA46994618461D46009756B3EF
:1016B00088B34A46D4E904132068B24228BF3246B0
:1016C000884205D9A16803EB010B5A4500F3A680B7
:1016D000934263DC216AA76A2A464046B847B0F1C4
:1016E000000BD2DDB9EB0B09CAD00120009A936838
:1016F000A3EB0B035D44A6EB0B069360002B3FF4BA
:1017000076AF002ED4D10AF1080353E902569A4667
:101710000833002EF9D032460A21284600F0D8F8C6
:10172000002800F09C800130A0EB0509C1E720688B
:101730002369984216D86369B34213D86FF0004208
:10174000B24228BF3246216A92FBF3F2A76A02FB3B
:1017500003F340464A46B847B0F1000A95DDA6EBD0
:101760000A0678E7B345DA4628BFB24652464946EC
:1017700000F098F9A3682268A3EB0A035244A3601F
:101780002260002BEBD121464046FEF7D1FF002816
:10179000E5D07AE72068B34632464EE72946019203
:1017A00000F080F9019AA3689B1AA3602368134490
:1017B0002360934696E723682169A3EB010B6369D5
:1017C00003EB430A0AEBDA7A0BF101034FEA6A0AE8
:1017D00033445345524684BF9A46524643052CD55E
:1017E00011464046FFF75EFA00283BD05A46216971
:1017F000019000F0BDF8A289019B22F4906242F0B2
:101800008002A28103EB0B002361AAEB0B03C4F857
:1018100014A0A3602060B34632460EE729465A461C
:1018200000F040F923685B44236021464046FEF700
:101830007FFF00283FF456AF27E7404600F0B2F99B
:1018400003460028DED121694046FFF7C9F9B4F903
:101850000C300C2223F08003C8F8002017E7721C1C
:10186000914627E70C22B4F90C30C8F800200EE7A7
:101870004FF0FF30BCE600BF00FCFF7F38B5074DDE
:101880000022044608462A6000F0E4F9431C00D018
:1018900038BD2B68002BFBD0236038BD940000209E
:1018A00038B50C46084D8446114620461A4600239A
:1018B0002B60644600F0D6F9431C00D038BD2B687D
:1018C000002BFBD0236038BD9400002000000000F6
:1018D00001F0FF01102A2BDB10F0070F08D010F8E1
:1018E000013B013A8B422DD010F0070F42B3F6D1E5
:1018F000F0B441EA012141EA014122F007047FF0FE
:1019000000070023F0E80256083C85EA010586EA54
:10191000010685FA47F5A3FA87F586FA47F6A5FA90
:1019200087F68EB9EED1F0BC01F0FF0102F007029C
:1019300032B110F8013B013A83EA010313B1F8D147
:101940000020704701387047002D06BF3546033828
:10195000073815F0010F07D1013015F4807F02BF61
:10196000013015F4C03F0130F0BC0138704700BFB2
:10197000844641EA000313F003036DD1403A41D39A
:1019800051F8043B40F8043B51F8043B40F8043B59
:1019900051F8043B40F8043B51F8043B40F8043B49
:1019A00051F8043B40F8043B51F8043B40F8043B39
:1019B00051F8043B40F8043B51F8043B40F8043B29
:1019C00051F8043B40F8043B51F8043B40F8043B19
:1019D00051F8043B40F8043B51F8043B40F8043B09
:1019E00051F8043B40F8043B51F8043B40F8043BF9
:1019F00051F8043B40F8043B51F8043B40F8043BE9
:101A0000403ABDD2303211D351F8043B40F8043B88
:101A100051F8043B40F8043B51F8043B40F8043BC8
:101A200051F8043B40F8043B103AEDD20C3205D398
:101A300051F8043B40F8043B043AF9D2043208D090
:101A4000D2071CBF11F8013B00F8013B01D30B8802
:101A500003806046704700BF082A13D38B078DD0E0
:101A600010F003038AD0C3F10403D21ADB071CBFB2
:101A700011F8013B00F8013B80D331F8023B20F81C
:101A8000023B7BE7043AD9D3013A11F8013B00F855
:101A9000013BF9D20B7803704B7843708B788370DD
:101AA0006046704788420DD98B1883420AD900EBF3
:101AB000020CBAB1624613F801CD02F801CD994289
:101AC000F9D170470F2A0ED8034602F1FF3C4AB104
:101AD0000CF1010C013B8C4411F8012B03F8012F90
:101AE0006145F9D1704740EA01039B0750D1A2F14B
:101AF000100370B501F1200C23F00F0501F1100E59
:101B000000F11004AC441B095EF8105C44F8105C52
:101B10005EF80C5C44F80C5C5EF8085C44F8085C09
:101B20005EF8045C44F8045C0EF1100EE64504F126
:101B30001004E9D1013312F00C0F01EB031102F094
:101B40000F0400EB031327D0043C24F003064FEAF4
:101B5000940C1E441C1F8E465EF8045B44F8045F20
:101B6000B442F9D10CF1010402F0030203EB840347
:101B700001EB840102F1FF3C4AB10CF1010C013B85
:101B80008C4411F8012B03F8012F6145F9D170BD88
:101B900002F1FF3C03469BE72246EBE7704700BF9C
:101BA000704700BFF8B51446F9B1CAB106460D46F4
:101BB00000F036F8A04202D32F463846F8BD214641
:101BC0003046FFF76FF807460028F6D02246294630
:101BD000FFF7CEFE30462946FFF702F83846F8BD3B
:101BE0002746FEF7FDFF3846F8BDBDE8F840114630
:101BF000FFF758B838B50C46084D844611462046C4
:101C00001A4600232B60644600F034F8431C00D0D1
:101C100038BD2B68002BFBD0236038BD940000201A
:101C200051F8040C0028A0F10400BCBF0B58C018E8
:101C3000704700BF024B58221A604FF0FF307047C8
:101C400094000020024B58221A604FF0FF3070477A
:101C500094000020024B58221A600020704700BFF9
:101C600094000020024B58221A604FF0FF3070475A
:101C700094000020024B58221A604FF0FF3070474A
:101C800094000020044A05491368002B08BF0B4646
:101C90001844106018467047980000203801002052
:101CA00053B94AB9002908BF00281CBF4FF0FF31C3
:101CB0004FF0FF3000F06AB9ADF1080C6DE904CEC9
:101CC00000F006F8DDF804E0DDE9022304B0704717
:101CD0002DE9F047089D0C46002B4ED194468C45CB
:101CE0008646B2FA82F262D94AB1C2F1200391402B
:101CF00020FA03F30CFA02FC194300FA02FE4FEA41
:101D00001C471FFA8CF6B1FBF7F44FEA1E4307FBA2
:101D1000141143EA014304FB06F199420AD91CEB72
:101D2000030304F1FF3080F01381994240F21081E7
:101D3000023C6344591A1FFA8EF3B1FBF7F007FB1C
:101D4000101143EA014300FB06F69E420AD91CEB40
:101D5000030300F1FF3180F0FD809E4240F2FA80E3
:101D6000634402389B1B40EA044000211DB1D3406C
:101D70000022C5E90032BDE8F0878B4205D90DB1DC
:101D8000C5E9000100210846F5E7B3FA83F100290F
:101D900046D1A34202D39042C0F0F180861A64EB90
:101DA00003030120002DE6D0C5E90063E3E7002A24
:101DB00040F09180A1EB0C044FEA1C481FFA8CF70D
:101DC0000121B4FBF8F64FEA1E4308FB164443EA30
:101DD000044307FB06F0984208D91CEB030306F105
:101DE000FF3402D2984200F2CE8026461C1A1FFA17
:101DF0008EF3B4FBF8F008FB104443EA044300FB05
:101E000007F79F4208D91CEB030300F1FF3402D20D
:101E10009F4200F2B1802046DB1B40EA0640A5E766
:101E2000C1F120068B4022FA06F71F4320FA06FC78
:101E300004FA01F343EA0C03F44000FA01F8380C09
:101E40004FEA1349B4FBF0FE1FFA87FC00FB1E4467
:101E500049EA04440EFB0CF9A14502FA01F20AD941
:101E60003C190EF1FF3A80F08580A14540F2828056
:101E7000AEF1020E3C44A4EB09041FFA83F9B4FB53
:101E8000F0F300FB134449EA044403FB0CFCA445B3
:101E900007D93C1903F1FF3068D2A44566D9023B4B
:101EA0003C4443EA0E40A0FB0293A4EB0C049C428A
:101EB000CE469C4652D34FD055B1B8EB0E0364EBDF
:101EC0000C0404FA06F6CB40CC401E43C5E900647E
:101ED0000021BDE8F087C2F1200320FA03F10CFADB
:101EE00002FC24FA03F394400C434FEA1C4800FA26
:101EF00002FE1FFA8CF7B3FBF8F008FB1031230C3D
:101F000043EA014300FB07F1994208D91CEB0303A4
:101F100000F1FF362CD299422AD9023863445B1A69
:101F2000A4B2B3FBF8F108FB113344EA034401FB0C
:101F300007F3A34208D91CEB040401F1FF3613D2C6
:101F4000A34211D902396444E41A41EA004138E756
:101F50000446EFE6084605E7C845ADD2B9EB020EE8
:101F600063EB070C0138A7E73146EDE7034698E736
:101F70003046D4E7D6467EE7634402384CE706464F
:101F8000234608460EE7023E63442FE7704700BF32
:101F900072B6FEE700B595B03022002108A8FEF722
:101FA0005FF900230393049305930693079301932A
:101FB0001F4A116C41F080511164126C02F0805282
:101FC0000192019A02931B4A116841F48041116009
:101FD000126802F480420292029A022208920121BF
:101FE0000B9110210C910E920F9308231093A823AC
:101FF000119312920723139308A800F0D1FA98B90D
:102000000F23039302230493002305934FF4A0535B
:1020100006934FF480530793052103A800F02AFD8F
:1020200020B915B05DF804FBFFF7B2FFFFF7B0FF72
:10203000003802400070004008B500F05FFFFFF775
:10204000A9FF00F0A5FF01F035F800F0FFFF3C21EB
:102050000F4800F0F6F910E05B6AA3F57F43FF3B01
:102060000C4A13600C48FEF7EBF90A4B19680B4851
:10207000FEF75EF9642000F06DFF054B1B68596A9E
:10208000044A11605A6AB2F5004FE5D2EAE700BF90
:10209000EC0000209C000020D8320008E03200084C
:1020A000FEE7FEE7FEE7FEE7FEE770477047704792
:1020B00008B500F03DFF08BD08B5024800F039F84A
:1020C00008BD00BFEC00002008B5024800F031F860
:1020D00008BD00BFEC00002008B5024800F029F858
:1020E00008BD00BFA400002000B583B0002100910E
:1020F0000C4B5A6C42F480425A645A6C02F480428F
:102100000092009A01911A6C42F080521A641B6C82
:1021100003F080530193019B072000F085FE03B07C
:102120005DF804FB00380240704770477047704705
:10213000704710B5044603681A6912F0020F11D0F7
:10214000DA6812F0020F0DD06FF002021A6101235B
:10215000037703689B6913F0030F70D0FFF7E6FF66
:102160000023237723681A6912F0040F12D0DA686B
:1021700012F0040F0ED06FF004021A6102232377CD
:1021800023689B6913F4407F5FD02046FFF7CEFFA2
:102190000023237723681A6912F0080F12D0DA6837
:1021A00012F0080F0ED06FF008021A610423237793
:1021B0002368DB6913F0030F4ED02046FFF7B6FF0C
:1021C0000023237723681A6912F0100F12D0DA68FF
:1021D00012F0100F0ED06FF010021A61082323774F
:1021E0002368DB6913F4407F3DD02046FFF79EFF54
:1021F0000023237723681A6912F0010F03D0DA68ED
:1022000012F0010F36D123681A6912F0800F03D043
:10221000DA6812F0800F34D123681A6912F0400F87
:1022200003D0DA6812F0400F32D123681A6912F035
:10223000200F03D0DA6812F0200F30D110BDFFF765
:1022400074FF2046FFF773FF8AE72046FFF76DFF14
:102250002046FFF76CFF9BE72046FFF766FF20460E
:10226000FFF765FFACE72046FFF75FFF2046FFF76B
:102270005EFFBDE76FF001021A612046FFF754FFD1
:10228000C1E76FF080021A61204600F088F9C3E7C9
:102290006FF040021A612046FFF74AFFC5E76FF072
:1022A00020021A61204600F079F9C7E70368304A36
:1022B000904212D0B0F1804F0FD0A2F57C429042F4
:1022C0000BD002F58062904207D002F58062904206
:1022D00003D002F57842904203D123F070034A689C
:1022E0001343234A90422AD0B0F1804F27D0A2F561
:1022F0007C42904223D002F5806290421FD002F5CA
:10230000806290421BD002F57842904217D002F5CD
:102310007052904213D002F5806290420FD002F5C5
:10232000806290420BD0A2F59832904207D002F51D
:102330008062904203D002F58062904203D123F480
:102340004073CA68134323F080034A691343036050
:102350008B68C3620B688362054B984203D003F518
:102360008063984201D10B69036301234361704785
:1023700000000140002853D0F8B50D46044690F8FF
:102380003D30002B47D0022384F83D30226893680B
:1023900023F4804323F007039360214651F8040B94
:1023A000FFF784FF21688B688A690E6A28681843E2
:1023B00022F4407222F00302AB68AF6943EA0723BC
:1023C000134323F47C4323F0FC03EA68EF6942EAF9
:1023D00007221A432B6A1B032F6943EA071313438F
:1023E00026F0AA066A686D6942EA051232438860DF
:1023F00021688B6123681A62012384F8463084F8CF
:102400003E3084F83F3084F8423084F8433084F81A
:102410003D300020F8BD80F83C3000F07FFEB2E790
:102420000120704701F01F014FF0010C0CFA01FC74
:10243000036A23EA0C030362036A8A4013430362BC
:10244000704738B5044690F83E00C0B294F83F306B
:1024500094F84220D2B294F843C00D46B1B9012895
:1024600049D1012A48D1022384F83E3084F8423011
:102470007DB3042D39D0012200212068FFF7D2FF5F
:10248000012204212068FFF7CDFF27E0DBB25FFACD
:102490008CFC042912D0012833D1012B2CD1012A24
:1024A00031D1BCF1010F30D1022384F83E3084F8E1
:1024B0003F3084F8423084F84330D9E7012B1CD1F7
:1024C000BCF1010F1BD1022384F83F3084F8433064
:1024D000CEE7012200212068FFF7A4FF22681368DD
:1024E00043F001031360002006E00122042120686C
:1024F000FFF798FFF2E7012038BD0120FCE71846FE
:10250000FAE70120F8E71846F6E71046F4E700007E
:1025100090F83C20012A3DD010B40346012280F8F7
:102520003C20022280F83D2002685068946820F028
:10253000700C086840EA0C0050601A681648824225
:102540001AD0B2F1804F17D0A0F57C40824213D050
:1025500000F5806082420FD000F5806082420BD08F
:1025600000F57840824207D000F57050824203D0D7
:10257000A0F59430824204D124F0800449682143BC
:102580009160012283F83D20002083F83C005DF833
:10259000044B7047022070470000014070477047AD
:1025A000002800F0E08170B582B00446036813F0A3
:1025B000010F3BD09F4B9B6803F00C03042B2CD0E6
:1025C0009C4B9B6803F00C03082B21D06368B3F588
:1025D000803F4FD0B3F5A02F52D0964B1A6822F40B
:1025E00080321A601A6822F480221A606368002B15
:1025F00050D000F0A9FC05468E4B1B6813F4003F39
:1026000014D100F0A1FC401B6428F5D90320B1E1EE
:10261000884B5B6813F4800FD8D0864B1B6813F48B
:10262000003F03D06368002B00F09F81236813F004
:10263000020F54D07F4B9B6813F00C0F3ED07D4BA4
:102640009B6803F00C03082B33D0E368002B68D0A1
:10265000794B01221A6000F077FC0546754B1B6828
:1026600013F0020F54D100F06FFC401B0228F5D983
:1026700003207FE16F4A136843F480331360B5E7AA
:102680006C4B1A6842F480221A601A6842F4803255
:102690001A60ABE700F058FC0546664B1B6813F464
:1026A000003FC3D000F050FC401B6428F5D9032044
:1026B00060E1604B5B6813F4800FC6D15D4B1B6813
:1026C00013F0020F03D0E368012B40F05081594A08
:1026D000136823F0F803216943EAC10313602368F8
:1026E00013F0080F42D063696BB3534B0122C3F858
:1026F000802E00F029FC05464E4B5B6F13F0020F55
:1027000034D100F021FC401B0228F5D9032031E12F
:10271000484A136823F0F803216943EAC1031360B0
:10272000DDE7454B00221A6000F00EFC0546414BE8
:102730001B6813F0020FD2D000F006FC401B0228E9
:10274000F5D9032016E13C4B0022C3F8802E00F09F
:10275000FBFB0546374B5B6F13F0020F06D000F012
:10276000F3FB401B0228F5D9032003E1236813F093
:10277000040F77D02F4B1B6C13F0805F33D10023F5
:1027800001932C4B1A6C42F080521A641B6C03F0BC
:1027900080530193019B0125284B1B6813F4807F14
:1027A00023D0A368012B34D0052B38D0214B1A6FCE
:1027B00022F001021A671A6F22F004021A67A36856
:1027C000002B3DD000F0C0FB06461A4B1B6F13F0E8
:1027D000020F46D100F0B8FB801B41F288339842CB
:1027E000F3D90320C6E00025D6E7144A136843F462
:1027F0008073136000F0A8FB0646104B1B6813F4AF
:10280000807FCED100F0A0FB801B0228F5D90320E9
:10281000B0E0084A136F43F001031367CFE7054B9D
:102820001A6F42F004021A671A6F42F001021A6727
:10283000C5E700BF0038024000004742007000407A
:1028400000F082FB0646524B1B6F13F0020F08D0BC
:1028500000F07AFB801B41F288339842F3D90320C1
:1028600088E0EDB9A369002B00F08380484A9268A4
:1028700002F00C02082A51D0022B17D0454B00223F
:102880001A6600F061FB0446414B1B6813F0007FA1
:1028900042D000F059FB001B0228F5D9032069E063
:1028A0003B4A136C23F080531364DBE7394B00225F
:1028B0001A6600F049FB0546354B1B6813F0007F94
:1028C00006D000F041FB401B0228F5D9032051E05F
:1028D000E369226A1343626A43EA8213A26A5208D6
:1028E000013A43EA0243E26A43EA0263284A536038
:1028F000284B01221A6600F027FB0446244B1B6874
:1029000013F0007F06D100F01FFB001B0228F5D951
:1029100003202FE000202DE000202BE0012B2BD006
:102920001B4B5B6803F48001E269914226D103F0FE
:102930003F02216A8A4223D1616A47F6C0721A4077
:10294000B2EB811F1ED103F44031A26A5208013A52
:10295000B1EB024F18D103F07063E26AB3EB026F80
:1029600014D1002006E001207047012002E0012080
:1029700000E0002002B070BD0120FBE70120F9E774
:102980000120F7E70120F5E70120F3E70120F1E757
:10299000003802400000474208B5334B9B6803F003
:1029A0000C03042B5BD0082B5BD12F4B5A6802F031
:1029B0003F025B6813F4800F2CD02B4B5868C0F398
:1029C00088104FEA401CBCEB000C6EEB0E0E4FEA79
:1029D0008E1343EA9C634FEA8C11B1EB0C0163EB5D
:1029E0000E03DB0043EA5173C90011EB000C43F105
:1029F0000003590200234FEA4C2041EADC51FFF763
:102A00004FF9194B5B68C3F3014301335B00B0FB23
:102A1000F3F027E0144B5868C0F388104FEA401CCD
:102A2000BCEB000C6EEB0E0E4FEA8E1343EA9C6378
:102A30004FEA8C11B1EB0C0163EB0E03DB0043EAB0
:102A40005173C90011EB000C43F1000399020023FC
:102A50004FEA8C2041EA9C51FFF722F9D1E7034865
:102A600000E0034808BD00BF0038024000127A00B1
:102A70000024F400002800F09B8070B50D46044649
:102A80004F4B1B6803F007038B4208D2CBB24C4A72
:102A90001370136803F007038B4240F08B802368A8
:102AA00013F0020F17D013F0040F04D0454A9368B7
:102AB00043F4E0539360236813F0080F04D0414AB5
:102AC000936843F4604393603E4A936823F0F003B5
:102AD000A1680B439360236813F0010F32D0636841
:102AE000012B21D09A1E012A25D9364A126812F0EC
:102AF000020F61D033498A6822F0030213438B60CE
:102B000000F022FA06462F4B9B6803F00C03626824
:102B1000B3EB820F16D000F017FA801B41F2883316
:102B20009842F0D9032042E0264A126812F4003F8E
:102B3000E0D101203BE0234A126812F0007FD9D196
:102B4000012034E01E4B1B6803F00703AB4207D99A
:102B5000EAB21B4B1A701B6803F00703AB422DD17E
:102B6000236813F0040F06D0164A936823F4E05349
:102B7000E1680B439360236813F0080F07D0114AF4
:102B8000936823F46043216943EAC1039360FFF72C
:102B900003FF0C4B9B68C3F303130B4AD35CD84071
:102BA0000A4B18600A4B186800F082F9002070BDCB
:102BB000012070470120FAE70120F8E70120F6E73D
:102BC000003C024000380240F83200086C0000204F
:102BD0006800002000230F2B00F2E98070B582B05E
:102BE00065E085684FEA430E032404FA0EF425EAF3
:102BF0000405CC6804FA0EF42C438460446824EA8B
:102C000002044A68C2F300129A40224342605CE028
:102C1000DC08083450F8242003F00705AD004FF01D
:102C20000F0E0EFA05FE22EA0E0E0A69AA4042EACB
:102C30000E0240F824205CE0072200E0002202FAA5
:102C40000EF22A4302345A4D45F82420594A94681A
:102C50006FEA0C0224EA0C054E6816F4801F01D0BE
:102C60004CEA0405534CA560E46802EA04054E688A
:102C700016F4001F01D04CEA04054E4CE560646870
:102C800002EA04054E6816F4003F01D04CEA040540
:102C9000484C6560246822404D6815F4803F01D09F
:102CA0004CEA0402434C226001330F2B7DD80122F1
:102CB0009A400C6804EA020C32EA0404F4D14C682D
:102CC00004F00304013C012C8BD94A6802F0030292
:102CD000032A09D0C4685D000322AA4024EA020442
:102CE0008A68AA402243C2604A6802F00302022AAC
:102CF0008ED004684FEA430E032202FA0EF224EA51
:102D000002044A6802F0030202FA0EF22243026051
:102D10004A6812F4403FC7D000220192264A546C00
:102D200044F480445464526C02F480420192019A4B
:102D30009C08A51C1E4A52F8255003F0030E4FEACA
:102D40008E0E0F2202FA0EF225EA02051B4A90426D
:102D50003FF474AF02F5806290421AD002F58062AF
:102D6000904218D002F58062904216D002F580623F
:102D7000904214D002F58062904212D002F5806237
:102D8000904210D002F5806290423FF455AF082285
:102D900055E7012253E7022251E703224FE70422BD
:102DA0004DE705224BE7062249E702B070BD7047A8
:102DB00000380140003C0140003802400000024061
:102DC000002808DB0901C9B200F1604000F561404C
:102DD00080F80013704700F00F000901C9B2014BE1
:102DE0001954704714ED00E000B500F00700C0F181
:102DF000070CBCF1040F28BF4FF0040C031D062B79
:102E00000FD9C31E4FF0FF3E0EFA0CF021EA00016D
:102E100099400EFA03FE22EA0E0241EA02005DF832
:102E200004FB0023EEE70000074AD36823F4E063C5
:102E30001B041B0C000200F4E060034343F0BF637B
:102E400043F40033D360704700ED00E010B5044652
:102E5000054BD868C0F30220FFF7C6FF01462046A5
:102E6000FFF7AEFF10BD00BF00ED00E0002807DB5C
:102E700000F01F02400901239340024A42F820302B
:102E8000704700BF00E100E00138B0F1807F0BD255
:102E90004FF0E0235861054AF02182F8231000200A
:102EA000986107221A6170470120704700ED00E029
:102EB00010B504460E4B1A784FF47A73B3FBF2F355
:102EC0000C4A1068B0FBF3F0FFF7DEFF68B90F2C77
:102ED00001D901200AE0002221464FF0FF30FFF720
:102EE000B5FF054B1C60002000E0012010BD00BFB5
:102EF000640000206C0000206800002008B50B4B27
:102F00001A6842F400721A601A6842F480621A6009
:102F10001A6842F480721A600320FFF785FF0020D0
:102F2000FFF7C6FFFFF7E0F8002008BD003C0240B5
:102F3000034A1168034B1B780B441360704700BFB2
:102F4000A000002064000020014B1868704700BFFB
:102F5000A000002038B50446FFF7F6FF0546B4F19F
:102F6000FF3F02D0044B1B781C44FFF7EDFF401BD2
:102F7000A042FAD338BD00BF64000020034AD2F853
:102F8000883043F47003C2F88830704700ED00E0E9
:102F900084B000220092154B196B41F004011963B3
:102FA000196B01F00401009100990192196B41F035
:102FB00080011963196B01F080010191019902925E
:102FC000196B41F001011963196B01F001010291C4
:102FD000029903921A6B42F010021A631B6B03F002
:102FE00010030393039B04B0704700BF00380240F6
:102FF0004FF06043D3F8803E13F0010F11D04FF033
:103000006043D3F8003E13F0010F01D1704700BFB9
:103010004FF060431B68002BF9D0C3B24FF0604201
:103020001370704770B506460D46002403E0305D0E
:10303000FFF7DEFF0134AC42F9DB204670BD08B576
:1030400008461146FFF7EEFF08BD000000B58DB041
:103050002422002103A8FDF703F900230193029322
:103060001248134A0260436083604FF6FF72C260E9
:103070000361436180238361032303930123059349
:10308000099303A9FFF776F950B90023019302933E
:1030900001A90648FFF73CFA28B90DB05DF804FB1A
:1030A000FEF776FFF1E7FEF773FFF6E7EC0000208E
:1030B0000000014000B58DB02422002103A8FDF7D7
:1030C000CFF800230193029313484FF0804202602F
:1030D000436083604FF6FF72C260036180238361A7
:1030E00003230393012305930A220792099303A95B
:1030F000FFF740F950B900230193029301A9064854
:10310000FFF706FA28B90DB05DF804FBFEF740FFA3
:10311000F1E7FEF73DFFF6E7A400002010B58AB006
:103120000023059306930793089309930368324A93
:10313000934204D0B3F1804F33D00AB010BD0024C5
:1031400001942E4B5A6C42F001025A645A6C02F000
:1031500001020192019A02941A6B42F010021A6362
:103160001B6B03F010030293029B4FF42063059343
:10317000022306930123099305A92148FFF72AFD9D
:10318000224621461820FFF761FE1820FFF76EFE49
:10319000224621461A20FFF759FE1A20FFF766FE45
:1031A000CBE70024039403F50E331A6C42F00102BE
:1031B0001A641A6C02F001020392039A04941A6BC7
:1031C00042F001021A631B6B03F001030493049B9A
:1031D00003230593022306930123099305A90948B4
:1031E000FFF7F8FC224621461C20FFF72FFE1C208B
:1031F000FFF73CFEA1E700BF00000140003802409D
:103200000010024000000240DFF834D00D480E49A3
:103210000E4A002302E0D458C4500433C4188C4230
:10322000F9D30B4A0B4C002301E013600432A24295
:10323000FBD3FFF7A3FEFCF7EFFFFEF7FDFE7047A1
:10324000000002200000002070000020543300081D
:103250007000002034010020FEE70000F8B500BF38
:10326000F8BC08BC9E467047F8B500BFF8BC08BC67
:043270009E467047BF
:103274000400002000000000000000000000000026
:10328400000000000000000000000000000000003A
:10329400000000000000000000000000000000002A
:1032A400000000000000000000000000000000001A
:1032B400000000000000000000000000000000000A
:1032C40000000000000000000000000000000000FA
:1032D400000000007465737420000000656E636F65
:1032E4006465722072656164696E673A20256420A2
:1032F4000A20000000000000000000000102030496
:1033040006070809232D302B20000000686C4C00B0
:103314006566674546470000303132333435363709
:1033240038394142434445460000000030313233CD
:1033340034353637383961626364656600000000ED
:083344008CE9FF7F010000008D
:04334C00F90100087B
:04335000D10100089F
:103354000400002000000000B83200089832000881
:1033640078320008000000000000000000000000A7
:103374000000000000000000000000000000000049
:103384000000000000000000000000000000000039
:103394000000000000000000000000000000000029
:1033A4000000000000000000000000000000000019
:1033B4000000000001000000100000000024F400E0
:0400000508003209B4
:00000001FF
